:100000000C9433000C94FA150C9421160C94481699
:100010000C9450000C9450000C948B170C94E00638
:100020000C9450000C9450000C942E170C9407174D
:100030000C9450000C94E7170C9450000C94500052
:100040000C9450000C9450000C9450000C945000F0
:100050000C94500045114511741179118F114511FF
:1000600045117411791111241FBECFE5D8E0DEBF10
:10007000CDBF11E0A0E6B0E0E8EAF4E302C00590ED
:100080000D92A234B107D9F728E0A2E4B1E001C093
:100090001D92A035B207E1F70E9452000C94521A4B
:1000A0000C9400000E94F30480E090E00895809199
:1000B0005301909154010196909354018093530100
:1000C000089580915001811112C00E94FE1683E0B4
:1000D0000E949216109254011092530180E00E94E7
:1000E000D715809150018F5F809350010895813022
:1000F000B9F580E00E9492160E94001790E090935C
:1001000052018093510160E070E070915301680FDB
:10011000791F80E090E00E94B61820916100309134
:10012000620040916300509164000E946D196093D9
:10013000550170935601809357019093580120E028
:1001400030E048E851E40E946D190E9487187093CE
:1001500041086093400881E00E94D7151092500139
:100160000895CF93DF9380E0C0E0D0E012C02FEF7E
:1001700080E792E0215080409040E1F700C000000D
:10018000CE010E947F16FE01E85DF74F8083219625
:1001900081E0C931D10558F3DF91CF91089561E035
:1001A00080E00E947B1461E082E00E947B1461E0A9
:1001B00083E00E947B140895CF930E94D81788375C
:1001C00099F0E0914F01F0E0E55BFE4F90ED980F64
:1001D00090830E94C1178BEA90E00E94C51780911E
:1001E0004F018F5F80934F0180914F01843009F060
:1001F00058C010924F0116C0282F30E0F901E55B7E
:10020000FE4F4081F901E85DF74F9081491307C027
:1002100091E0909360008F5F80934F0103C0109234
:10022000600004C080914F01843030F3C0916000C1
:10023000C13039F48AE790E00E94C51710924F014F
:1002400031C084E890E00E94C51780914A018F5F19
:1002500080934A01823049F0833061F08130E9F4C3
:1002600061E080E00E94061518C061E082E00E9413
:10027000061513C061E083E00E94061582E990E054
:100280000E94C5172FEF37E689E899E021503040EA
:1002900080409040D9F700C0000010924F01C0E0AC
:1002A00001C0C0E08C2FCF910895CF92DF92EF92E2
:1002B000FF92CF93C82F60E081E00E947B1461E041
:1002C0008CE10E947B1461E08BE10E947B1461E071
:1002D0008FE10E947B1481E00E9444140E946F14FD
:1002E00020E030E048EC52E40E946D196B017C0183
:1002F000C1110BC088E990E00E94A613C701B601A6
:100300000E94051483E40E94D91220E030E040EE00
:1003100051E4C701B6010E94681918166CF461E037
:100320008CE10E94061561E08BE10E94061560E0F9
:100330008FE10E94061516C020E030E040EE51E447
:10034000C701B6010E947B18882364F460E08CE149
:100350000E94061560E08BE10E94061560E086E1D0
:100360000E9406152FEF83ED90E3215080409040CE
:10037000E1F700C00000CF91FF90EF90DF90CF90A9
:100380000895CF93C82F61E082E10E947B1461E061
:1003900087E10E947B14C13321F487E10E94C715D5
:1003A00005C0C23319F482E10E94C715CF910895A8
:1003B00061E086E10E947B1460E08AE10E947B1488
:1003C0000E94881687E590E00E94021781E00E9453
:1003D000D71581E690E00E94F515089561E086E169
:1003E0000E9406158AE38A95F1F700C060E086E175
:1003F0000E94061508958091400890914108089543
:1004000061E08DE10E947B140E94551782E390E029
:100410000E946B1786E791E00E94681708950E947A
:100420006F160E9431140E940D120E944F130E94F9
:10043000B2170E94D8010E94CF000E9400020E94C1
:10044000B10080912208909123080E946C0B80E0FB
:1004500090E00E94140B84EF91E00E94C80DDFCF62
:100460000E94EE010E94FB014E9738F483EF91E069
:100470000E94681702C00E94EE010E94FB018F31AA
:100480009105C8F34F9720F086E791E00E94681726
:100490000895CF93DF93CDB7DEB764970FB6F89486
:1004A000DEBF0FBECDBF80E1E6E6F0E0DE011196D3
:1004B00001900D928A95E1F7FE01719684E0DF01CB
:1004C0001D928A95E9F710E0113089F020F0123082
:1004D00009F453C06DC00E949613CE0101960E948C
:1004E000A61361E080E00E949A1311E061C00E94AF
:1004F0003612082F883709F45BC00E9436128837FD
:10050000E1F7802F0E94D912013381F40E949613E3
:1005100085E40E94D91280E20E94D91288E40E94E8
:10052000D91261E080E00E949A1312E0023331F4A4
:100530000E94961380E00E94550110E0033371F48D
:1005400089E70E94C1178EE60E94C1170E94E31737
:10055000893769F50E94300210E02AC0043341F562
:100560000E94961380912208909123080E946C0BA0
:1005700080E090E00E94140B1BC00E943612082FEE
:100580008837B1F00E9436128837E1F7802F0E9439
:10059000D912013329F481E30E94C10110E008C09F
:1005A000023331F482E30E94C10110E001C010E087
:1005B00085E090E00E94C80D87CF0F931F93CF93E3
:1005C000DF9300D000D01F92CDB7DEB780EA90E075
:1005D0000E94C51710E00DC00E94D817883749F057
:1005E000E1E0F0E0EC0FFD1FE10FF11D805380838F
:1005F0001F5F153088F3153009F042C08EEA90E095
:100600000E94C51784E022C0282F30E0F901E85D80
:10061000F74F90819F3FC9F40EC0E1E0F0E0EC0F8E
:10062000FD1FE90FF11D6081FA01E85DF74F60835E
:100630009F5F8F5F01C090E0482F50E0B9016B5F72
:100640007F4F461757074CF303C08B5F8831E0F2AA
:1006500004E010E012C02FEF80E792E021508040CC
:100660009040E1F700C00000F801E85DF74FB801E5
:1006700080810E9473160F5F1F4F0831110558F3D8
:100680000E94B1000F900F900F900F900F90DF918C
:10069000CF911F910F9108950F931F93CF93DF93E5
:1006A000109249010E943612C82F883791F00E949B
:1006B00036128837E1F78C2F0E94D91280914801B9
:1006C000E82FF0E0ED5BFE4FC053C0838F5F809357
:1006D0004801809148018530A8F57DC09091430183
:1006E0000C2F10E0F801E85DF74F8081981326C0C9
:1006F00010924801E8011CC0E0914801F0E0ED5B78
:10070000FE4F9081FE01E85DF74F808198130DC088
:1007100087E70E94D91281E08093490180914801C6
:100720008F5F80934801219603C0109249010DC04C
:10073000C8010596C817D907F8F207C010924901F9
:10074000CB5F01C0C4E0C83148F20E94961380918B
:100750004901813091F487EB90E00E94A61310923A
:1007600048012FEF35EA8EE0215030408040E1F71C
:1007700000C000008091490130C08FEB90E00E94E2
:10078000A613809142018F5F80934201823049F02D
:10079000833061F08130E9F461E080E00E94061569
:1007A00018C061E082E00E94061513C061E083E09A
:1007B0000E94061582E990E00E94A6139FEF27E6AB
:1007C00039E889E09150204030408040D9F700C09E
:1007D00000001092480180914901DF91CF911F9153
:1007E0000F9108950E94DC008130A9F40F2EF4E2ED
:1007F000EF2EF8E0FF2EF02D02E020E030E044E69E
:1008000050E060E070E08DE894E00E94BB0A80E078
:1008100090E00E94320E0E944C038130A9F40F2E0A
:10082000F6E2EF2EF8E0FF2EF02D02E020E030E0BF
:1008300044E650E060E070E089E492E00E94BB0A88
:1008400080E090E00E94320E85E090E00E94C80DAA
:10085000C9CFCF93823071F118F48130B9F055C00F
:100860008330E1F1843009F44DC04FC02FEF80E7B1
:1008700092E0215080409040E1F700C000006C2FD2
:1008800070E08FEF0E947316CF5F01C0C4E0C930E3
:1008900068F33BC02FEF80E792E02150804090400A
:1008A000E1F700C000006C2F70E08FEF0E9473161C
:1008B000CF5F01C0C9E0CE3068F327C02FEF80E7DB
:1008C00092E0215080409040E1F700C000006C2F82
:1008D00070E08FEF0E947316CF5F01C0CEE0C3318E
:1008E00068F313C02FEF80E792E0215080409040E2
:1008F000E1F700C000006C2F70E08FEF0E947316CC
:10090000CF5F01C0C3E1C93168F389EC90E00E9478
:10091000C5170E94B100CF91089583ED90E00E9429
:10092000C5170E94E317813389F48EE091E00E949D
:10093000C5170E94E317813319F40E94C1014EC00C
:10094000823309F04BC00E94C10148C0823321F4B8
:1009500081E00E94550142C0833339F48BEA90E074
:100960000E94C5170E94300239C0843319F40E94D6
:10097000DD0234C0853331F58BEA90E00E94C51763
:10098000C4E014C0EC2FF0E0E85DF74F8081805D9B
:100990000E94C117C83031F0CD3021F0C23111F0C2
:1009A000C73119F48AE20E94C117CF5FC83150F3F2
:1009B00082E291E00E94C5170E94E31780530E94D3
:1009C00029040CC0863351F48091220890912308A9
:1009D0000E946C0B80E090E00E94140B85E090E098
:1009E0000E94C80D9ACF0F2EF0E2EF2EF8E0FF2EF6
:1009F000F02D03E020E030E044E650E060E070E0FD
:100A00008FE092E00E94BB0A0F2EF2E2EF2EF8E098
:100A1000FF2EF02D20E030E044E650E060E070E092
:100A200082EF93E00E94BB0A8091220890912308F4
:100A30000E94320E0E94CC0BFFCFCF93DF93EC01CC
:100A40000E94FC0B8091590190915A01892B31F43D
:100A50008DE591E090935A01809359012097C9F058
:100A600080915B0190915C019E01280F391F2F330B
:100A700046E0340788F48217930788F4C09159013F
:100A8000D0915A01C80FD91F30935C0120935B01AC
:100A900008C0C0E0D0E005C0C0E0D0E002C0C0E0C7
:100AA000D0E00E94FB0CCE01DF91CF910895089514
:100AB000FC010396928381832FEF3FEF34832383DE
:100AC000968385839087878310820895FC01118621
:100AD00010860895CF93DF939C01FB01DC011196F2
:100AE000CD91DC911297D383C2838C819D819583B4
:100AF00084838C819D81DC0113967C936E93129785
:100B00007D836C8331872087F90180818F5F8083AB
:100B1000DF91CF910895CF93DF93EB014881598105
:100B20004F3F2FEF520721F4FC01A781B0850DC084
:100B3000DC01139601C0DF011296ED91FC91139731
:100B40002081318142175307B0F71296ED91FC9145
:100B50001397FB83EA83D583C483BD83AC83139649
:100B6000DC93CE93129799878887FC0120812F5FB1
:100B70002083DF91CF910895CF93DF93FC01A0856F
:100B8000B185C281D381848195819D838C83C48109
:100B9000D581828193819B838A8311968D919C91CB
:100BA0001297E817F90731F48481958112969C9386
:100BB0008E931197118610868C9181508C938C9115
:100BC000DF91CF9108951BBC89EF8ABD8BE08EBD6C
:100BD00089B7806189BF089531E1FC013083319785
:100BE00022E220833197A3E3A0833197608331977A
:100BF000708331971082319760E86083319710825B
:100C0000319762E06083319763E06083319764E0FD
:100C10006083319765E06083319766E06083319748
:100C200067E06083319768E06083319769E06083B3
:100C3000319760E1608331973083319732E13083BF
:100C4000319733E13083319734E13083319735E1A7
:100C50003083319736E13083319737E130833197F4
:100C600038E13083319739E13083319730E2308396
:100C7000319731E2308331972083319723E220830B
:100C80003197408331975083319726E22083319703
:100C900027E22083319728E22083319729E22083BD
:100CA000319720E32083319721E3208386970895AD
:100CB0000E94E305A0910208B0910308CD91CDBF39
:100CC000DD91DEBFFF91EF91DF91CF91BF91AF91A9
:100CD0009F918F917F916F915F914F913F912F9154
:100CE0001F910F91FF90EF90DF90CF90BF90AF904A
:100CF0009F908F907F906F905F904F903F902F903C
:100D00001F900F900FBE0F90089581E008950F92ED
:100D10000FB6F8940F921F9211242F923F924F9288
:100D20005F926F927F928F929F92AF92BF92CF927B
:100D3000DF92EF92FF920F931F932F933F934F9366
:100D40005F936F937F938F939F93AF93BF93CF9353
:100D5000DF93EF93FF93A0910208B09103080DB6C3
:100D60000D920EB60D920E94DE0DA0910208B09178
:100D70000308CD91CDBFDD91DEBFFF91EF91DF91F3
:100D8000CF91BF91AF919F918F917F916F915F9123
:100D90004F913F912F911F910F91FF90EF90DF9016
:100DA000CF90BF90AF909F908F907F906F905F900B
:100DB0004F903F902F901F900F900FBE0F9008956F
:100DC0001F920F920FB60F9211242F933F934F93C0
:100DD0005F936F937F938F939F93AF93BF93EF93A3
:100DE000FF930E940C0CFF91EF91BF91AF919F91E7
:100DF0008F917F916F915F914F913F912F910F90C4
:100E00000FBE0F901F9018950FB6F8940F92FC012B
:100E1000828D811102C081E001C080E00F900FBE81
:100E20000895FC01448D4423A9F050E026813781C8
:100E3000240F351F3783268384819581281739072E
:100E400020F08081918197838683CB0166817781B1
:100E50000E94491A08951F93CF93DF93EC010FB6B8
:100E6000F8940F921E8D0BC08989882351F0CE0112
:100E700041960E94EE0E81110E94F50F115011163D
:100E80009CF38FEF8E8F0F900FBE0FB6F8940F92DA
:100E90001D8D0BC08885882351F0CE0108960E94D5
:100EA000EE0E81110E94F50F115011169CF38FEF79
:100EB0008D8F0F900FBEDF91CF911F9108950F93EB
:100EC0001F93CF93DF93FC01362F892B09F449C080
:100ED000238D222309F447C0022F10E08FEF9FEFEC
:100EE000B8010E94DA19448D842F90E068177907C1
:100EF00008F43BC0EF010FB6F8940F926081718146
:100F0000FB01249FE00DF11D1124FD83EC831A8E5B
:100F10007B836A8301501109809FA001819F500D3E
:100F2000909F500D1124CB01840F951F9F838E83BA
:100F30008FEF8D8F8E8F311108C08885882369F0DF
:100F4000CE0108960E94EE0E08C0CE0108960E94BF
:100F50005805CE0141960E9458050F900FBE81E0C2
:100F600005C080E003C080E001C080E0DF91CF9148
:100F70001F910F9108950F931F93F801611103C002
:100F80001183008302C051834083838F648F61E0AB
:100F9000CF010E945F071F910F910895DF92EF929A
:100FA000FF920F931F93CF93DF93382FE62F882361
:100FB00029F1682F70E08FEF9FEF0E94DA198E2FD2
:100FC00090E068177907E8F03E9FC0011124813E48
:100FD0002FEF9207C8F4D42EDE2FC32F4F960E9416
:100FE0001D057C01009791F08C012D2DAC01415E17
:100FF0005F4F6D2F8C2F0E94BB0708C0E12CF12C96
:1010000005C0E12CF12C02C0E12CF12CC701DF91CD
:10101000CF911F910F91FF90EF90DF900895CF92A5
:10102000DF92EF92FF920F931F93CF93DF9300D045
:1010300000D01F92CDB7DEB78C016B015D834C836E
:10104000E12C0FB6F8940F92F801F28CFF2091F08A
:10105000B601C8010E941107FA94F801F28E80854A
:10106000882321F0C80108960E94EE0E0F900FBE53
:1010700081E053C08C819D81892B21F40F900FBE9C
:1010800080E04BC0E11006C0CE0101960E94AB0F7C
:10109000EE24E3940F900FBE0E94FC0B0FB6F89461
:1010A0000F92F801858D8F3F09F4158EF801868D1A
:1010B0008F3F09F4168E0F900FBEBE016C5F7F4FFD
:1010C000CE0101960E94B60F81111BC0C8010E947B
:1010D0000407882381F06C817D81C80141960E94BC
:1010E000930EC8010E942B070E94FB0C8111A9CF0F
:1010F0000E948706A6CFC8010E942B070E94FB0C06
:10110000A0CFC8010E942B070E94FB0CC8010E94BF
:101110000407882309F495CF80E00F900F900F907B
:101120000F900F90DF91CF911F910F91FF90EF9053
:10113000DF90CF900895CF93DF93EC010FB6F89432
:101140000F928D8D8F3F09F41D8E8E8D8F3F09F488
:101150001E8E0F900FBE8A8D811104C0CE01419664
:101160000E94A50ECE010E942B07DF91CF9108951A
:10117000FC01228533852C5A374059F4FC018489BF
:101180009589F7E08F3B9F0731F0892B31F080E0A4
:10119000089580E0089580E0089581E00895E09149
:1011A000CA07F091CB078081811107C08FEF9FEFB5
:1011B0009093A1078093A0070895E091CA07F0914A
:1011C000CB070580F681E02D808191819093A10766
:1011D0008093A0070895CF93DF93EC018F89988DBA
:1011E0000E945705CE010E945705DF91CF910895C7
:1011F0006F927F928F929F92AF92BF92CF92DF9227
:10120000EF920F931F93CF93DF93CDB7DEB74C01CF
:10121000F5018789908D215031093C01620E731EC2
:101220006115710589F415C0822F90E0FB01E80F6C
:10123000F91F3081D501A80FB91F59963C938081C1
:10124000882329F02F5F01C020E0283068F3F501E2
:1012500010A2F3E0FE1520F40F2EF3E0EF2EF02D98
:10126000F501E68AC50102960E946605C5010C9645
:101270000E946605F501B186A08684E090E08E1993
:10128000910995878487B38AA28AA801B401C30112
:101290000E94EC05F50191838083C114D10419F0FB
:1012A000F601B182A082DF91CF911F910F91EF9053
:1012B000DF90CF90BF90AF909F908F907F906F9076
:1012C0000895CF93C0E010C08C2F90E09C01220FB6
:1012D000331F220F331F220F331F820F931F82529F
:1012E000984F0E945805CF5FC43070F385ED97E0AA
:1012F0000E9458058CEC97E00E9458058FEB97E010
:101300000E94580586EB97E00E9458058CEA97E00A
:101310000E94580585ED97E09093CB078093CA070C
:101320008CEC97E09093C9078093C807CF910895FC
:10133000CF93DF93EC010FB6F8940F928091AB0737
:101340008F5F8093AB078091020890910308892BEF
:1013500059F4D0930308C09302088091AB07813001
:1013600099F40E94610910C08091A70781110CC0F7
:10137000E0910208F091030896898E89891720F080
:10138000D0930308C09302088091A2078F5F8093D7
:10139000A2078E899091A807981710F48093A80748
:1013A00090E0FC01EE0FFF1FEE0FFF1FEE0FFF1F7F
:1013B0008E0F9F1FFC01E252F84F0180F281E02D59
:1013C000FD83EC83848195819F838E83A481B58185
:1013D000CE01029613969C938E93129795838483E5
:1013E000EE89F0E0CF01880F991F880F991F880FB1
:1013F000991FE80FF91FE252F84FFB87EA878081B7
:101400008F5F80830F900FBE8091A707882321F004
:101410008091020890910308DF91CF910895CF93B6
:10142000DF931CC00FB6F8940F92E091BB07F091C8
:10143000BC07C681D781CE0102960E94BC0580916F
:10144000AB0781508093AB078091B50781508093A3
:10145000B5070F900FBECE010E94EB088091B50733
:101460008111E0CFDF91CF9108950E940F0A0E9471
:101470008706FBCFFF920F931F93CF93DF93EC016F
:10148000F62E0091A9071091AA0780910208909169
:10149000030802960E94BC05CF3F8FEFD807B1F535
:1014A000FF20A1F1ECEAF7E0A181B281C09102082E
:1014B000D0910308BD83AC83C0910208D09103088A
:1014C00014968D919C9115979F838E831496CD9140
:1014D000DC911597809102089091030802969B83F6
:1014E0008A838091020890910308029615969C9336
:1014F0008E931497A0910208B09103081B96FC9359
:10150000EE931A9780818F5F80832FC0C00FD11F09
:10151000E0910208F0910308D383C283C017D1077A
:1015200068F460910208709103088091C807909157
:10153000C9076E5F7F4F0E948B0517C0609102083C
:10154000709103088091CA079091CB076E5F7F4F1F
:101550000E948B058091A0079091A107C817D90719
:1015600020F4D093A107C093A007DF91CF911F91E2
:101570000F91FF9008952F923F924F925F926F923A
:101580007F928F929F92AF92BF92CF92DF92EF9213
:10159000FF920F931F93CF93DF933C011B015A01DE
:1015A0002901CA010E941D056C01892B99F086E270
:1015B00090E00E941D05EC01892B41F086E2FE01BE
:1015C00011928A95E9F7D88ECF8A06C0C6010E948B
:1015D000570502C0C0E0D0E0209791F0950140E0AF
:1015E00050E0812C912C5E016701E02E8201B10157
:1015F000C3010E94F808CE010E94980981E001C051
:101600008FEFDF91CF911F910F91FF90EF90DF90BF
:10161000CF90BF90AF909F908F907F906F905F9092
:101620004F903F902F9008950F931F93CF93DF9388
:10163000EC010FB6F8940F92892B21F4C0910208A7
:10164000D09103088E010E5F1F4FC8010E94BC0598
:101650008C899D89892B21F0CE010C960E94BC05B6
:101660008091A2078F5F8093A207809102089091DA
:101670000308C817D90759F4B80186EB97E00E9410
:101680006A058091B5078F5F8093B50707C0809189
:10169000AB0781508093AB070E94CF080F900FBE1D
:1016A0008091020890910308C817D90719F0CE015C
:1016B0000E94EB088091A707882349F080910208D7
:1016C00090910308C817D90711F40E948706DF918B
:1016D000CF911F910F9108950F931F93CF93DF9395
:1016E00020910208309103088217930709F44FC034
:1016F000009709F44CC0EC010FB6F8940F920E94C9
:10170000B808882309F441C08E010E5F1F4FC8013D
:101710000E94BC058E899091A807981710F48093B9
:10172000A80790E0FC01EE0FFF1FEE0FFF1FEE0F6A
:10173000FF1F8E0F9F1FFC01E252F84F0180F281C4
:10174000E02DFD83EC83848195819F838E83A4812A
:10175000B58113961C930E93129715830483EE891B
:10176000F0E0CF01880F991F880F991F880F991FEC
:10177000E80FF91FE252F84FFB87EA8780818F5FFD
:10178000808380910208909103080F900FBEDF9133
:10179000CF911F910F910895EF92FF920F930F2E0B
:1017A000FEE9EF2EF7E0FF2EF02D00E020E030E024
:1017B00045E550E064E371E085E39AE00E94BB0AEE
:1017C000813011F40E94EB11813081F4F8948FEF95
:1017D0009FEF9093A1078093A00781E08093A707D4
:1017E0001092AA071092A9070E94580680916500DE
:1017F0000F91FF90EF90089580919D078F5F8093E8
:101800009D0708950FB6F8940F928091A9079091C3
:10181000AA070F900FBE08950F931F93CF93DF93E6
:1018200080919D078111D8C0C091A907D091AA07C6
:101830008E010F5F1F4F1093AA070093A907011590
:101840001105B9F48091CA079091CB072091C80780
:101850003091C9073093CB072093CA079093C907EB
:101860008093C8078091A3078F5F8093A3070E948E
:10187000CF088091A0079091A1070817190708F4D5
:10188000B4C0E091CA07F091CB078081811107C0F5
:101890008FEF9FEF9093A1078093A007A6C0E091E0
:1018A000CA07F091CB070580F681E02D0680F7810D
:1018B000E02D828193810817190728F49093A107DE
:1018C0008093A00792C0A285B385848195812681EB
:1018D0003781EC013D832C8386819781248135817A
:1018E000EC013B832A8311968D919C9112979F0165
:1018F0002E5F3F4F8217930731F4868197811296AE
:101900009C938E931197138612868C9181508C93A1
:10191000A489B589109711F18685978540895189E9
:10192000EC015D834C838089918946855785EC0164
:101930005B834A8311964D915C911297CF010C966F
:101940004817590731F48089918912969C938E9398
:101950001197158A148A8C9181508C938689909165
:10196000A807981710F48093A80790E0DC01AA0F4D
:10197000BB1FAA0FBB1FAA0FBB1F8A0F9B1FDC0137
:10198000A252B84F11960D90BC91A02DB583A4839F
:1019900014968D919C9115979783868314968D91BB
:1019A0009C911597EC013B832A8315963C932E93CB
:1019B0001497A689B0E0CD01880F991F880F991F51
:1019C000880F991FA80FB91FA252B84FB387A287DB
:1019D0008C918F5F8C9355CF8091A5079091A6072E
:1019E00001969093A6078093A50780E0DF91CF91A1
:1019F0001F910F910895CF93DF930FB6F8940F9234
:101A000080919D07815080939D0780919D07811152
:101A1000B9C08091AB07811196C0B4C0E091C407F2
:101A2000F091C5070680F781E02DA489B589C685A8
:101A3000D785808991899D838C83C089D18986854A
:101A400097859B838A8311962D913C911297CF01A4
:101A50000C962817390731F48089918912969C9346
:101A60008E931197158A148A8C9181508C93A2853C
:101A7000B385C481D581868197819D838C83C681FE
:101A8000D781848195819B838A8311968D919C91C6
:101A900012979F012E5F3F4F8217930731F4868183
:101AA000978112969C938E931197138612868C9130
:101AB00081508C9386899091A807981710F4809391
:101AC000A80790E0DC01AA0FBB1FAA0FBB1FAA0F3B
:101AD000BB1F8A0F9B1FDC01A252B84F11960D90BD
:101AE000BC91A02DB583A48314968D919C911597DC
:101AF000978386831496CD91DC9115973B832A8337
:101B000015963C932E931497A689B0E0CD01880FCB
:101B1000991F880F991F880F991FA80FB91FA252EC
:101B2000B84FB387A2878C918F5F8C939689A091D1
:101B30000208B091030856968C91981730F081E016
:101B40008093A40702C0E0E0F0E08091BF0781111C
:101B500065CFEF2B11F00E94CF08C091A507D0915F
:101B6000A607209769F00E940C0C882319F081E0E9
:101B70008093A4072197B9F71092A6071092A507A2
:101B80008091A4070F900FBE80E0DF91CF91089560
:101B9000CF93DF93EC01892B49F00E94FC0B60E0AE
:101BA000CE010E943A0A0E94FB0C01C080E0811124
:101BB00002C00E948706DF91CF91089580919D0712
:101BC000882321F081E08093A40708951092A40750
:101BD0002091A80701C02150822F90E0FC01EE0F58
:101BE000FF1FEE0FFF1FEE0FFF1FE80FF91FE2525E
:101BF000F84F3081332379F3AC01440F551F440F64
:101C0000551F440F551F480F591FDF010180F281F6
:101C1000E02D0280F381E02D1296FC93EE93119754
:101C20004F51584FE417F50729F442815381FD01C4
:101C300052834183FC01EE0FFF1FEE0FFF1FEE0FDB
:101C4000FF1F8E0F9F1FFC01E252F84F0180F281AF
:101C5000E02D86819781909303088093020820935A
:101C6000A80708950F931F93CF93DF93EC010FB64E
:101C7000F8940F92892B21F4C0910208D0910308A7
:101C80008E010E5F1F4FC8010E94BC058C899D8983
:101C9000892B21F0CE010C960E94BC05B8018CEA7C
:101CA00097E00E946A0580E00FC0282F082E000CE4
:101CB000330BFE01E20FF31F95A1913021F4FE01D9
:101CC000E20FF31F15A28F5F18167CF70F900FBE5F
:101CD0008091A707882339F00FB6F8940F920E94DD
:101CE000CF080F900FBE8091020890910308C8178B
:101CF000D907A1F48091A707882319F00E948706CD
:101D00000DC09091AC078091AB07981305C010925D
:101D100003081092020802C00E94DE0DDF91CF91ED
:101D20001F910F910895CF93DF93EB01609102080B
:101D300070910308645F7F4F0E948B0561E0CE01C4
:101D40000E943A0ADF91CF9108950F931F93CF938A
:101D5000DF93FC018B01A181B281809102089091F7
:101D60000308EC01BF87AE878091020890910308B9
:101D700014962D913C911597EC01398B288B149674
:101D80008D919C9115972091020830910308245F52
:101D90003F4FEC013B832A832091020830910308D6
:101DA000245F3F4F15963C932E931497A091020801
:101DB000B09103085596FC93EE93549790819F5FE2
:101DC0009083442311F00FEF1FEF642FC8010E948E
:101DD0003A0ADF91CF911F910F910895CF93DF932E
:101DE000DC011596ED91FC9116970680F781E02DA8
:101DF000A489B589C685D785808991899D838C837F
:101E0000C089D189868597859B838A8311968D9118
:101E10009C9112979F01245F3F4F8217930731F4E3
:101E20008089918912969C938E931197158A148AB2
:101E30008C9181508C9380919D07811160C0A28507
:101E4000B385C481D581868197819D838C83C6812A
:101E5000D781848195819B838A8311968D919C91F2
:101E600012979F012E5F3F4F8217930731F48681AF
:101E7000978112969C938E931197138612868C915C
:101E800081508C9386899091A807981710F48093BD
:101E9000A80790E0DC01AA0FBB1FAA0FBB1FAA0F67
:101EA000BB1F8A0F9B1FDC01A252B84F11960D90E9
:101EB000BC91A02DB583A48314968D919C91159708
:101EC000978386831496CD91DC9115973B832A8363
:101ED00015963C932E931497A689B0E0CD01880FF8
:101EE000991F880F991F880F991FA80FB91FA25219
:101EF000B84FB387A2878C918F5F8C931CC04FEB38
:101F000057E0DA011196CD91DC911297D787C687F9
:101F10008C819D81918B808B8C819D81DC011396BE
:101F20003C932E9312973D832C83558B448BDA017F
:101F30008C918F5F8C939689E0910208F091030851
:101F40008689891720F481E08093A40701C080E08E
:101F5000DF91CF9108952091A307FC012083209168
:101F6000A9073091AA073283218308951F93CF9345
:101F7000DF930FB6F8940F92E091A907F091AA07AA
:101F8000DC0111964D915C911297DF01A41BB50BFA
:101F9000EB01288139812F3FDFEF3D07F9F0EC019C
:101FA0001881C091A3071C1741F0E417F50728F02A
:101FB000FB011182108281E012C0A217B30748F41E
:101FC000FB012A1B3B0B318320830E94AB0F80E077
:101FD00006C0DB011D921C9281E001C080E00F90E1
:101FE0000FBEDF91CF911F91089581E08093A407E8
:101FF0000895DC01E0910C08F0910D08808191E0DA
:10200000811190E09C93911106C00580F681E02D2E
:1020100080819181089580E090E00895FC017383B0
:102020006283918780874617570790F0421B530BB6
:102030008485958548175907E0F4BF016E5F7F4F8F
:1020400080910A0890910B080E948B0580E008950A
:102050004217530718F46217730768F4BF016E5FE5
:102060007F4F80910C0890910D080E948B0580E0B5
:10207000089581E0089581E00895EF92FF920F9313
:102080001F93CF93DF93EC018B017A0108C08C85FD
:102090009D85080F191FE889F989CE0109956C857E
:1020A0007D85600F711F9801A701CE010E940E105F
:1020B0008111EDCFDF91CF911F910F91FF90EF90A4
:1020C0000895EF92FF920F931F93CF93DF938C01AC
:1020D0007B01E0910C08F0910D080580F681E02D60
:1020E000C681D781CE0102960E94BC058A8982FFF3
:1020F00006C0A701B801CE010E943D1002C08E7F2C
:102100008A8BE889F989CE010995DF91CF911F91DA
:102110000F91FF90EF90089509C00580F681E02DA2
:102120006FEF7FEF808191810E946110E0910C0838
:10213000F0910D0880818111F0CF80910A08909173
:102140000B0890930D0880930C08F0930B08E09314
:102150000A0808950F931F93CF93DF938C010E9479
:10216000020CEC018091040890910508C817D9076A
:1021700030F40E948C1081E0F801808302C0F801E5
:102180001082D0930508C0930408CE01DF91CF914F
:102190001F910F910895CF92DF92EF92FF921F93BC
:1021A000CF93DF931F92CDB7DEB77C01162F0E942D
:1021B000FC0BCE0101960E94AA106C01898181114D
:1021C00027C011110AC0CE14DF0438F00E94FB0CA6
:1021D000B601C7010E9461101DC0112341F0E091BA
:1021E0000A08F0910B08808111E0811110E0B7011D
:1021F0006C197D09412F80910808909109080E946F
:102200009B080E94FB0C811105C00E94870602C03A
:102210000E94FB0C0F90DF91CF911F91FF90EF90E8
:10222000DF90CF900895EF92FF920F931F93CF937B
:10223000DF9300D000D000D0CDB7DEB77AC089815F
:1022400088230CF476C00C811D81D8011A968D91DB
:102250009C911B97892B21F0C80102960E94BC0516
:10226000CE0106960E94AA107C01E9818E2FEE0F06
:10227000990BAA0BBB0BFC013197E930F10508F073
:1022800058C0E65DFF4F0C94211AF80182898160E5
:10229000828B2A813B8164857585620F731FA7013C
:1022A000C8010E940E10882309F443C0D801529639
:1022B0008C91529782FF0DC06A817B811C968D9113
:1022C0009C911D97680F791FA701C8010E943D10BE
:1022D00003C08E7FF801828BD8015096ED91FC915E
:1022E0005197C801099525C0F80182898E7F828B9C
:1022F00020C0D80152968C915297816052968C934F
:1023000052976A817B811D967C936E931C976E0D0C
:102310007F1D9701A701C8010E940E100AC0F80195
:10232000828981FD04C0C8010E94570502C08E7FCA
:10233000828B40E050E0BE016F5F7F4F80910808C4
:10234000909109080E940F08811179CF26960FB647
:10235000F894DEBF0FBECDBFDF91CF911F910F91DB
:10236000FF90EF900895CF93DF931F92CDB7DEB724
:10237000CE0101960E94F90F69810E94CB100E9444
:102380001311F6CF0FB6F8940F9280910808909130
:102390000908892BE9F487E198E00E9458058EE04E
:1023A00098E00E94580587E198E090930D0880938B
:1023B0000C088EE098E090930B0880930A0840E0A8
:1023C00065E08AE00E94CE07909309088093080890
:1023D0000F900FBE0895EF92FF920F930E94C211CB
:1023E0008091080890910908892B91F00F2EF6E052
:1023F000EF2EF8E0FF2EF02D01E020E030E044E683
:1024000050E069E371E083EB91E10E94BB0A01C0F7
:1024100080E00F91FF90EF90089561E083E10E94CA
:102420007B1461E084E10E947B1461E085E10E94FD
:102430007B1460E08CE00E947B1460E08DE00E94E1
:102440007B1460E08EE00E947B1460E08FE00E94CD
:102450007B148CE00E94D3158DE00E94D3158EE092
:102460000E94D3158FE00E94D315089560E083E1A8
:102470000E94061561E084E10E94061561E085E195
:102480000E9406158CE00E949115882309F454C01F
:102490008DE00E949115882309F450C08EE00E94BF
:1024A0009115882309F44CC08FE00E949115882370
:1024B00009F448C061E083E10E94061560E084E110
:1024C0000E94061561E085E10E9406158CE00E94DD
:1024D00091158823C9F18DE00E9491158823B1F1EF
:1024E0008EE00E949115882399F18FE00E9491154A
:1024F000882381F161E083E10E94061561E084E1B7
:102500000E94061560E085E10E9406158CE00E949D
:102510009115882309F18DE00E9491158823F1F02F
:102520008EE00E9491158823D9F08FE00E949115CA
:10253000811118C083E2089581E3089584E308952A
:1025400087E308958AE2089582E3089585E3089574
:1025500088E3089580E3089583E3089586E308956A
:1025600089E3089588E70895811109C060E08AE051
:102570000E94061561E089E00E94061508958130E9
:1025800041F460E08AE00E94061560E089E00E9464
:102590000615089561E08BE00E9406158FE99FE023
:1025A0000197F1F700C0000060E08BE00E94061583
:1025B0000895CF93C82F80E00E94B412C4FB662711
:1025C00060F984E00E940615C5FB662760F985E086
:1025D0000E940615C6FB662760F986E00E94061574
:1025E0006C2F661F6627661F87E00E9406150E94F3
:1025F000CA126C2F617084E00E940615C1FB662729
:1026000060F985E00E940615C2FB662760F986E046
:102610000E940615C3FB662760F987E00E94061535
:102620000E94CA12CF910895CF93C82F81E00E94D3
:10263000B412C4FB662760F984E00E940615C5FB4E
:10264000662760F985E00E940615C6FB662760F9DB
:1026500086E00E9406156C2F661F6627661F87E0BE
:102660000E9406150E94CA126C2F617084E00E94BD
:102670000615C1FB662760F985E00E940615C2FBBE
:10268000662760F986E00E940615C3FB662760F99D
:1026900087E00E9406150E94CA12CF91089561E05A
:1026A00084E00E947B1461E085E00E947B1461E07D
:1026B00086E00E947B1461E087E00E947B1461E069
:1026C0008BE00E947B1461E08AE00E947B1461E051
:1026D00089E00E947B1482E00E9414132FEF86E7AA
:1026E00091E0215080409040E1F700C0000088E276
:1026F0000E9414138FE99FE00197F1F700C00000DA
:102700008FE00E9414138FE99FE00197F1F700C05A
:10271000000081E00E9414138FE39FE10197F1F71D
:1027200000C0000086E00E941413089581E00E941A
:1027300014130895611104C080580E941413089561
:10274000613019F480540E94141308950F931F935D
:10275000CF938C01C0E003C00E94D912CF5FF80173
:10276000EC0FF11D80818111F7CFCF911F910F9157
:102770000895EF92FF921F93CF93DF93CDB7DEB70B
:102780002A970FB6F894DEBF0FBECDBF7C0100972D
:1027900021F480E30E94D9122CC099231CF48DE20D
:1027A0000E94D91210E012C0C7016AE070E00E94D6
:1027B000EE19E1E0F0E0EC0FFD1FE10FF11D17FD58
:1027C000FA95805D8083E62EF72E1F5F1E141F048E
:1027D0005CF311500CC0E1E0F0E0EC0FFD1FE10FE5
:1027E000F11D17FDFA9580810E94D9121150112315
:1027F00094F72A960FB6F894DEBF0FBECDBFDF91D7
:10280000CF911F91FF90EF900895CF92DF92EF92BA
:10281000FF926B017C010E948018CB010E94B913CA
:102820008EE20E94D912C701B6010E94871880E08B
:1028300090E00E94B6189B01AC01C701B6010E944E
:102840000E1820E030E04AE754E40E946D190E941F
:102850008718CB010E94B913FF90EF90DF90CF90C3
:10286000089587B1806487B987B18F7787B986B1BA
:10287000816086B986B1826086B986B1846086B986
:1028800086B1806886B90895811110C087B18E7FA6
:1028900087B987B18D7F87B987B18B7F87B987B1BA
:1028A000877F87B987B18F7E87B911C0813079F46E
:1028B00087B1816087B987B18D7F87B987B18B7FF9
:1028C00087B987B1877F87B987B18F7E87B986B18E
:1028D000806486B93699FECF84B195B10895BC0164
:1028E00080E090E00E94B61820E030E040EA5BE330
:1028F0000E946D190895883000F561110EC04AB329
:1029000021E030E0B90102C0660F771F8A95E2F737
:10291000CB01809584238ABB0895613009F075C08E
:102920004AB321E030E0B90102C0660F771F8A95F3
:10293000E2F7CB01842B8ABB089598EF980F98306B
:1029400000F561110EC047B321E030E0B90102C0CB
:10295000660F771F9A95E2F7CB018095842387BB9A
:102960000895613009F051C047B321E030E0B9016A
:1029700002C0660F771F9A95E2F7CB01842B87BBC5
:10298000089590EF980F9830F8F461110EC044B399
:1029900021E030E0B90102C0660F771F9A95E2F797
:1029A000CB018095842384BB0895613071F544B3D5
:1029B00021E030E0B90102C0660F771F9A95E2F777
:1029C000CB01842B84BB089588518830F0F46111C9
:1029D0000EC041B321E030E0B90102C0660F771F9D
:1029E0008A95E2F7CB018095842381BB08956130FD
:1029F00061F441B321E030E0B90102C0660F771FF6
:102A00008A95E2F7CB01842B81BB0895883000F5CD
:102A100061110EC04BB321E030E0B90102C0660F76
:102A2000771F8A95E2F7CB01809584238BBB0895AD
:102A3000613009F075C04BB321E030E0B90102C04C
:102A4000660F771F8A95E2F7CB01842B8BBB089525
:102A500098EF980F983000F561110EC048B321E04F
:102A600030E0B90102C0660F771F9A95E2F7CB01FB
:102A70008095842388BB0895613009F051C048B324
:102A800021E030E0B90102C0660F771F9A95E2F7A6
:102A9000CB01842B88BB089590EF980F9830F8F401
:102AA00061110EC045B321E030E0B90102C0660FEC
:102AB000771F9A95E2F7CB018095842385BB089513
:102AC000613071F545B321E030E0B90102C0660F15
:102AD000771F9A95E2F7CB01842B85BB0895885127
:102AE0008830F0F461110EC042B321E030E0B9014A
:102AF00002C0660F771F8A95E2F7CB018095842389
:102B000082BB0895613061F442B321E030E0B90145
:102B100002C0660F771F8A95E2F7CB01842B82BB38
:102B20000895883058F429B330E0A90102C05595C2
:102B300047958A95E2F7CA018170089528EF280F1A
:102B4000283048F486B390E002C0959587952A9581
:102B5000E2F78170089520EF280F283048F483B3FE
:102B600090E002C0959587952A95E2F781700895C7
:102B700028EE280F283050F490B3892F90E002C03F
:102B8000959587952A95E2F7817008950895CF93DA
:102B9000C82F0E94911561E0811160E08C2F0E9486
:102BA0000615CF91089561E00E94061508958130C1
:102BB00039F485B7816085BF85B7826085BF11C054
:102BC000811107C085B78E7F85BF85B78D7F85BF93
:102BD00008C0823031F485B7816085BF85B78D7FAD
:102BE00085BF8BB780648BBF08959093470880930F
:102BF000460808951F920F920FB60F9211242F933B
:102C00003F934F935F936F937F938F939F93AF9374
:102C1000BF93EF93FF93E0914608F0914708099521
:102C2000FF91EF91BF91AF919F918F917F916F91A4
:102C30005F914F913F912F910F900FBE0F901F907A
:102C400018951F920F920FB60F9211242F933F9356
:102C50004F935F936F937F938F939F93AF93BF93A4
:102C6000EF93FF93E0914208F09143080995FF919B
:102C7000EF91BF91AF919F918F917F916F915F91F4
:102C80004F913F912F910F900FBE0F901F9018956D
:102C90001F920F920FB60F9211242F933F934F93D1
:102CA0005F936F937F938F939F93AF93BF93EF93B4
:102CB000FF93E0914408F09145080995FF91EF9149
:102CC000BF91AF919F918F917F916F915F914F9144
:102CD0003F912F910F900FBE0F901F9018958FB7B7
:102CE00080688FBF0895E199FECF7FBB6EBB8DBB1F
:102CF0008CB384608CBB8CB382608CBB0895E199EB
:102D0000FECF9FBB8EBB8CB381608CBB8DB308950F
:102D100083B78F7B83BF83B7877F83BF89B781608A
:102D200089BF089581110AC083B7816083BF83B7CB
:102D3000826083BF83B7846083BF0895813051F47C
:102D400083B78E7F83BF83B7826083BF83B784607E
:102D500083BF0895813051F483B7816083BF83B707
:102D60008D7F83BF83B78B7F83BF0895823051F4FB
:102D700083B78E7F83BF83B7826083BF83B78B7F28
:102D800083BF0895833051F483B7816083BF83B7D5
:102D9000826083BF83B78B7F83BF0895843051F4F3
:102DA00083B78E7F83BF83B78D7F83BF83B78460F4
:102DB00083BF0895853051F483B7816083BF83B7A3
:102DC0008D7F83BF83B7846083BF0895863051F4BD
:102DD00083B7816083BF83B7826083BF83B784601A
:102DE00083BF0895811109C083B78E7F83BF83B7E6
:102DF0008D7F83BF83B78B7F83BF089582BF089584
:102E000082B7089590934B0880934A0808951F92C3
:102E10000F920FB60F9211242F933F934F935F930E
:102E20006F937F938F939F93AF93BF93EF93FF9392
:102E3000E0914A08F0914B080995FF91EF91BF91FD
:102E4000AF919F918F917F916F915F914F913F9142
:102E50002F910F900FBE0F901F9018951F920F92F9
:102E60000FB60F9211242F933F934F935F936F935D
:102E70007F938F939F93AF93BF93EF93FF93E091D3
:102E80004808F09149080995FF91EF91BF91AF91E2
:102E90009F918F917F916F915F914F913F912F9172
:102EA0000F900FBE0F901F9018958FB58E7F8FBD1E
:102EB0008FB582608FBD8EB588608EBD8EB5806106
:102EC0008EBD8FB58F7B8FBD8FB580688FBD089508
:102ED0009BBD8ABD08950024969587950794969585
:102EE00087950794982F802D9C0140E050E060E08A
:102EF00074E284EF90E00E94021A2150310937BD3C
:102F000026BD8EB581608EBD8EB582608EBD8EB5BC
:102F10008B7F8EBD08951F920F920FB60F921124D2
:102F20002F933F934F935F936F937F938F939F93D1
:102F3000AF93BF93EF93FF93E0914C08F0914D084E
:102F40000995FF91EF91BF91AF919F918F917F91E3
:102F50006F915F914F913F912F910F900FBE0F9006
:102F60001F9018958AB188608AB98AB180618AB940
:102F70008AB18B7F8AB986E880BD87E689B910BCA3
:102F800008955D9BFECF8CB908950F931F93CF9347
:102F90008C01C0E003C00E94C117CF5FF801EC0FA5
:102FA000F11D80818111F7CFCF911F910F9108956D
:102FB00080EA96E802C0019721F05F9BFCCF8CB1BC
:102FC000089588E708955F9BFECF8CB108951F9206
:102FD0000F920FB60F9211242F933F934F935F934D
:102FE0006F937F938F939F93AF93BF93EF93FF93D1
:102FF000E0914E08F0914F080995FF91EF91BF9134
:10300000AF919F918F917F916F915F914F913F9180
:103010002F910F900FBE0F901F9018955058BB27FF
:10302000AA270E9426180C942E190E94201938F005
:103030000E94271920F039F49F3F19F426F40C94CC
:103040001D190EF4E095E7FB0C941719E92F0E9467
:103050003F1958F3BA17620773078407950720F0E2
:1030600079F4A6F50C9461190EF4E0950B2EBA2FA5
:10307000A02D0B01B90190010C01CA01A00111247E
:10308000FF27591B99F0593F50F4503E68F11A162A
:10309000F040A22F232F342F4427585FF3CF4695BB
:1030A00037952795A795F0405395C9F77EF41F16DD
:1030B000BA0B620B730B840BBAF09150A1F0FF0FA7
:1030C000BB1F661F771F881FC2F70EC0BA0F621F93
:1030D000731F841F48F4879577956795B795F79583
:1030E0009E3F08F0B0CF9395880F08F09927EE0F18
:1030F0009795879508950E94F31808F481E0089544
:103100000E9487186894B1110C94621908950E9466
:10311000471988F09F5798F0B92F9927B751B0F009
:10312000E1F0660F771F881F991F1AF0BA95C9F74B
:1031300014C0B13091F00E946119B1E008950C946F
:103140006119672F782F8827B85F39F0B93FCCF322
:10315000869577956795B395D9F73EF490958095C8
:10316000709561957F4F8F4F9F4F0895E89409C0E8
:1031700097FB3EF490958095709561957F4F8F4FAA
:103180009F4F9923A9F0F92F96E9BB279395F695C0
:10319000879577956795B795F111F8CFFAF4BB0F3E
:1031A00011F460FF1BC06F5F7F4F8F4F9F4F16C0A2
:1031B000882311F096E911C0772321F09EE8872F2C
:1031C000762F05C0662371F096E8862F70E060E0E8
:1031D0002AF09A95660F771F881FDAF7880F969561
:1031E000879597F90895990F0008550FAA0BE0E805
:1031F000FEEF16161706E807F907C0F012161306B9
:10320000E407F50798F0621B730B840B950B39F4F8
:103210000A2661F0232B242B252B21F408950A265E
:1032200009F4A140A6958FEF811D811D089597F99E
:103230009F6780E870E060E008959FEF80EC08955C
:1032400000240A9416161706180609060895002485
:103250000A9412161306140605060895092E0394FF
:10326000000C11F4882352F0BB0F40F4BF2B11F473
:1032700060FF04C06F5F7F4F8F4F9F4F089557FDD2
:103280009058440F551F59F05F3F71F04795880FD4
:1032900097FB991F61F09F3F79F08795089512166B
:1032A00013061406551FF2CF4695F1DF08C0161617
:1032B00017061806991FF1CF8695710561050894C8
:1032C0000895E894BB2766277727CB0197F90895DF
:1032D0000E94F31808F48FEF08950E9480190C944F
:1032E0002E190E94201938F00E94271920F09523EA
:1032F00011F00C9417190C941D1911240C946219D7
:103300000E943F1970F3959FC1F3950F50E0551F30
:10331000629FF001729FBB27F00DB11D639FAA272A
:10332000F00DB11DAA1F649F6627B00DA11D661F79
:10333000829F2227B00DA11D621F739FB00DA11D9A
:10334000621F839FA00D611D221F749F3327A00D54
:10335000611D231F849F600D211D822F762F6A2FF0
:1033600011249F5750409AF0F1F088234AF0EE0F55
:10337000FF1FBB1F661F771F881F91505040A9F782
:103380009E3F510580F00C9417190C9462195F3F11
:10339000E4F3983ED4F3869577956795B795F795BE
:1033A000E7959F5FC1F7FE2B880F911D9695879536
:1033B00097F90895AA1BBB1B51E107C0AA1FBB1FA9
:1033C000A617B70710F0A61BB70B881F991F5A95B1
:1033D000A9F780959095BC01CD01089597FB072E24
:1033E00016F4009407D077FD09D00E94DA1907FC83
:1033F00005D03EF4909581959F4F08957095619505
:103400007F4F0895052E97FB1EF400940E94191A11
:1034100057FD07D00E94271A07FC03D04EF40C94E6
:10342000191A50954095309521953F4F4F4F5F4F5A
:10343000089590958095709561957F4F8F4F9F4F20
:103440000895EE0FFF1F0590F491E02D0994A1E27D
:103450001A2EAA1BBB1BFD010DC0AA1FBB1FEE1F0E
:10346000FF1FA217B307E407F50720F0A21BB30B59
:10347000E40BF50B661F771F881F991F1A9469F7D5
:1034800060957095809590959B01AC01BD01CF0131
:103490000895FB01DC0102C001900D9241505040A3
:0834A000D8F70895F894FFCF5E
:1034A800016F12833B03312E4C69322E54332E4563
:1034B800342E6C6F67000000000057656C636F6DF9
:1034C800650D0A0057524F4E4750415353574F52BC
:1034D8004400424C4F434B0054656D70203D200022
:1034E800456E74657220706173733A0D0A005361FA
:1034F80076696E670D0A0057656C636F6D650057D6
:10350800726F6E67446174610044656C65746564CC
:103518000D0A00312E4C6967687420322E54656D8F
:103528007020332E456E74657220342E41646420F9
:103538005573657220352E44656C65746520557326
:10354800657220362E6C6F676F75740D0A00312E08
:10355800456E7472616E636520322E48616C6C0D25
:103568000A000D0A456E74657220757365722069CC
:10357800640D0A0049444C4500546D72205376632B
:02358800000041
:00000001FF
